:100000000C9472160C9493160C9493160C949316ED
:100010000C9493160C94B9290C948E290C94931675
:100020000C9474290C9493160C9493160C949316B8
:100030000C9493160C9493160C9493160C9493169C
:100040000C9493160C9493160C9493160C9493168C
:100050000C9493160C9493160C9493160C9493167C
:100060000C9493160C9493160C9493160C9493166C
:100070000C9493160C9493160C9493160C9493165C
:100080000C9493160C9493160C9493160C9493164C
:100090000C9493160C9493160C9493160C9493163C
:1000A0000C9493160C9493160C9493160C9493162C
:1000B0000C9493160C9493160C9493160C9493161C
:1000C0000C9493160C9493160C9493160C94DC26B3
:1000D0000C9493160C9493160C9493160C949316FC
:1000E0000C949316000000000000000000000000C7
:1000F0000000000000000000000000000000000000
:1001000000000000000000000000000000000000EF
:1001100000000000000000000000000000000000DF
:1001200000000000000000000000000000000000CF
:1001300000000000000000000000000000000000BF
:1001400000000000000000000000000000000000AF
:10015000000000000000000000000000000000009F
:10016000000000000000F0FF010000000000F0FFB0
:10017000010000000000308001000000000030801D
:10018000010000000000308001000000000030800D
:100190000100000000003080010000000000F0FFBE
:1001A000010000000000E0FF00000000000000006F
:1001B0000000000000000000000000000000F0FF50
:1001C000010000000000F0FF010000000000308C82
:1001D000010000000000308C010000000000308CA5
:1001E000010000000000308C0100000000003080A1
:1001F00001000000000000000000000000000000FE
:10020000000000000000F0FF010000000000F0FF0F
:100210000100000000003006000000000000300671
:100220000000000000003006000000000000300662
:10023000000000000000F007000000000000F003D4
:1002400000000000000000000000000000000000AE
:10025000000000000000F0FF010000000000F0FFBF
:10026000010000000000308001000000000030802C
:10027000010000000000308001000000000030801C
:10028000010000000000F0FF010000000000F0FF8E
:10029000010000000000000000000000000000005D
:1002A000000000000000F08F010000000000F08F4F
:1002B000010000000000308C010000000000308CC4
:1002C000010000000000308C01000000000030FC44
:1002D00001000000000030FC0100000000000000F0
:1002E000000000000000000000000000000030805E
:1002F0000100000000003080010000000000F0FF5D
:10030000010000000000F0FF01000000000030804C
:10031000010000000000308001000000000000002B
:10032000000000000000000000000000000030009D
:10033000000000000000300000000000000030005D
:100340000000000000003000000000000000F0FF8E
:10035000010000000000F0FF01000000000030007C
:10036000000000000000300000000000000030002D
:10037000000000000000300000000000000000004D
:100380000000000000000000000000000000F0FF7E
:10039000010000000000F0FF010000000000308CB0
:1003A000010000000000308C010000000000308CD3
:1003B000010000000000308C010000000000308CC3
:1003C000010000000000308001000000000000007B
:1003D0000000000000000000000000000000F0FF2E
:1003E000010000000000F0FF01000000000030806C
:1003F000010000000000308001000000000030809B
:10040000010000000000308001000000000030808A
:10041000010000000000F0FF010000000000E0FF0C
:1004200000000000000000000000000000000000CC
:1004300000000000000000000000000000000000BC
:1004400000000000000000000000000000000000AC
:10045000000000000000000000000000000000009C
:100650000000000000FFFFFFFFFF7F0000FFFFFF23
:10066000FFFF7F0000FFFFFFFFFF7F0000FFFFFF96
:10067000FFFF7F00000F000000007800000F000067
:1006800000007800000F000000007800000F00005C
:1006900000007800000F000000007800000F00004C
:1006A00000007800000F000000007800000F00003C
:1006B00000007800000F000000007800000F00002C
:1006C00000007800000F000000007800000F00001C
:1006D00000007800000F000000007800000F00000C
:1006E00000007800000F000000007800000F0000FC
:1006F00000007800000F000000007800000F0000EC
:1007000000007800000F000000007800000F0000DB
:1007100000007800000F000000007800000F0000CB
:1007200000007800000F000000007800000F0000BB
:100730000000780000FFFFFFFFFF7F0000FFFFFFCA
:10074000FFFF7F0000FFFFFFFFFF7F0000FFFFFFB5
:10075000FFFF7F000000000000000000000000001C
:100760000000000000000000000000000000000089
:100770000000000000000000000000000000000079
:100780000000000000000000000000000000000069
:100790000000000000000000000000000000000059
:100A90000000000000000000000000000004000052
:100AA0000000000000060000000000000007000039
:100AB00000000000800700000000F0008007000038
:100AC0000000F000800700000000F0008007000038
:100AD0000000F000800700000000F0008007000028
:100AE0000000F00080FFFFFFFFFFFF0080FFFFFF1F
:100AF000FFFFFF0080FFFFFFFFFFFF0080FFFFFF02
:100B0000FFFFFF00000000000000F00000000000F8
:100B10000000F000000000000000F00000000000F5
:100B20000000F000000000000000F00000000000E5
:100B30000000F000000000000000000000000000C5
:100B400000000000000000000000000000000000A5
:100B50000000000000000000000000000000000095
:100B60000000000000000000000000000000000085
:100B70000000000000000000000000000000000075
:100E4000000000000000000000000000800700E03B
:100E5000FFFF3F00800700E0FFFF3F00800700E04A
:100E6000FFFF3F00800700E0FFFF3F00800700E03A
:100E700001003C00800700E001003C00800700E02A
:100E800001003C00800700E001003C00800700E01A
:100E900001003C00800700E001003C00800700E00A
:100EA00001003C00800700E001003C00800700E0FA
:100EB00001003C00800700E001003C00800700E0EA
:100EC00001003C00800700E001003C00800700E0DA
:100ED00001003C00800700E001003C00800700E0CA
:100EE00001003C00800700E001003C00800700E0BA
:100EF00001003C00800700E001003C00800700E0AA
:100F000001003C00800700E001003C00800700E099
:100F100001003C00800700E001003C00800700E089
:100F200001003C00800700E001003C0080FFFFFF63
:100F300001003C0080FFFFFF01003C0080FFFFFF3D
:100F400001003C0080FFFFFF01003C0000000000AA
:100F50000000000000000000000000000000000091
:100F60000000000000000000000000000000000081
:100F70000000000000000000000000000000000071
:100F80000000000000000000000000000000000061
:10124000000000000000000000000000000300801B
:1012500000003000800700C001007800800700C057
:1012600001007800800700C001007800800700C0FE
:1012700001007800800700C001007800800700C0EE
:1012800001007800800700C001007800800700C0DE
:1012900001007800800700C001007800800700C0CE
:1012A00001007800800700C001007800800700C0BE
:1012B00001007800800700C001007800800700C0AE
:1012C00001007800800700C001007800800700C09E
:1012D00001007800800700C001007800800700C08E
:1012E00001007800800700C001007800800700C07E
:1012F00001007800800700C001007800800700C06E
:1013000001007800800700C001007800800700C05D
:1013100001007800800700C001007800800700C04D
:1013200001007800800700C001007800800700C03D
:1013300001007800800700C00100780080FFFFFFF7
:10134000FFFF7F0080FFFF7FFFFF7F0080FFFF3FE9
:10135000FEFF7F0080FFFF3FFEFF7F0000000000D8
:10136000000000000000000000000000000000007D
:10137000000000000000000000000000000000006D
:10138000000000000000000000000000000000005D
:10139000000000000000000000000000000000004D
:101640000000000080FFFFFF0300000080FFFFFF9D
:101650000300000080FFFFFF0300000080FFFFFF8A
:1016600003000000000000C003000000000000C0F4
:1016700003000000000000C003000000000000C0E4
:1016800003000000000000C003000000000000C0D4
:1016900003000000000000C003000000000000C0C4
:1016A00003000000000000C003000000000000C0B4
:1016B00003000000000000C003000000000000C0A4
:1016C00003000000000000C003000000000000C094
:1016D00003000000000000C003000000000000C084
:1016E00003000000000000C003000000000000C074
:1016F00003000000000000C003000000000000C064
:1017000003000000000000C003000000000000C053
:1017100003000000000000C003000000000000C043
:1017200003000000000000C003000000000000C033
:101730000300000080FFFFFFFFFFFF0180FFFFFFAE
:10174000FFFFFF0180FFFFFFFFFFFF0180FFFFFFA3
:10175000FFFFFF010000000000000000000000008B
:101760000000000000000000000000000000000079
:101770000000000000000000000000000000000069
:101780000000000000000000000000000000000059
:101790000000000000000000000000000000000049
:101A500000000000000000000000000000FFFFFF89
:101A60000100780000FFFFFF0100780000FFFFFF8A
:101A70000100780000FFFFFF0100780000FFFFFF7A
:101A800001007800000F00E001007800000F00E086
:101A900001007800000F00E001007800000F00E076
:101AA00001007800000F00E001007800000F00E066
:101AB00001007800000F00E001007800000F00E056
:101AC00001007800000F00E001007800000F00E046
:101AD00001007800000F00E001007800000F00E036
:101AE00001007800000F00E001007800000F00E026
:101AF00001007800000F00E001007800000F00E016
:101B000001007800000F00E001007800000F00E005
:101B100001007800000F00E001007800000F00E0F5
:101B200001007800000F00E001007800000F00E0E5
:101B300001007800000F00E001007800000F00E0D5
:101B400001007800000F00E001007800000F00E0C5
:101B500001007800000F00E0FFFF7F00000F00E0B1
:101B6000FFFF7F00000F00E0FFFF7F00000F00E09D
:101B7000FFFF7F00000000000000000000000000E8
:101B80000000000000000000000000000000000055
:101B90000000000000000000000000000000000045
:101BA0000000000000000000000000000000000035
:101BB0000000000000000000000000000000000025
:101E200000000000000000000000000000FFFFFFB5
:101E3000FFFF3F0000FFFFFFFFFF3F0000FFFFFF2E
:101E4000FFFF3F0000FFFFFFFFFF3F00000F00808C
:101E500007003C00000F008007003C00000F0080DE
:101E600007003C00000F008007003C00000F0080CE
:101E700007003C00000F008007003C00000F0080BE
:101E800007003C00000F008007003C00000F0080AE
:101E900007003C00000F008007003C00000F00809E
:101EA00007003C00000F008007003C00000F00808E
:101EB00007003C00000F008007003C00000F00807E
:101EC00007003C00000F008007003C00000F00806E
:101ED00007003C00000F008007003C00000F00805E
:101EE00007003C00000F008007003C00000F00804E
:101EF00007003C00000F008007003C00000F00803E
:101F000007003C00000F008007003C00000F00802D
:101F100007003C00000F008007003C00000F00801D
:101F200007003C00000F00800F003E00000F008003
:101F30001F003F00000F0080FFFF3F00000F0080E8
:101F4000FFFF3F0000000000000000000000000054
:101F50000000000000000000000000000000000081
:101F60000000000000000000000000000000000071
:101F70000000000000000000000000000000000061
:101F80000000000000000000000000000000000051
:10220000000000000000000000000000007F00004F
:1022100000000000007F000000000000007F0000C0
:1022200000000000007F000000000000007F0000B0
:1022300000000000000F000000000000000F000080
:1022400000000000000F000000000000000F000070
:1022500000000000000F000000000000000F000060
:1022600000000000000F000000000000000F000050
:1022700000000000000F000000000000000F000040
:1022800000000000000F000000000000000F000030
:1022900000000000000F000000000000000F000020
:1022A00000000000000F000000000000000F000010
:1022B00000000000000F000000000000000F000000
:1022C00000000000000F000000000000000F0000F0
:1022D00000000000000F000000000000000F0000E0
:1022E00000000000000F000000000000000F0000D0
:1022F00000000000000F000000000000000F0000C0
:1023000000000000000F00000000000000FFFFFFC1
:10231000FFFF0F0000FFFFFFFFFF0F0000FFFFFFA9
:10232000FFFF0F0000FFFFFFFFFF0F000000000096
:10233000000000000000000000000000000000009D
:10234000000000000000000000000000000000008D
:10235000000000000000000000000000000000007D
:10236000000000000000000000000000000000006D
:102640000000000080FFFF3FFEFFFF0180FFFF7FD3
:10265000FFFFFF0180FFFFFFFFFFFF01800700C0BA
:102660000100E001800700C00100E001800700C018
:102670000100E001800700C00100E001800700C008
:102680000100E001800700C00100E001800700C0F8
:102690000100E001800700C00100E001800700C0E8
:1026A0000100E001800700C00100E001800700C0D8
:1026B0000100E001800700C00100E001800700C0C8
:1026C0000100E001800700C00100E001800700C0B8
:1026D0000100E001800700C00100E001800700C0A8
:1026E0000100E001800700C00100E001800700C098
:1026F0000100E001800700C00100E001800700C088
:102700000100E001800700C00100E001800700C077
:102710000100E001800700C00100E001800700C067
:102720000100E001800700C00100E00180FFFFFF21
:10273000FFFFFF0180FFFF7FFFFFFF0180FFFF3FE3
:10274000FEFFFF010000000000000000000000008C
:102750000000000000000000000000000000000079
:102760000000000000000000000000000000000069
:102770000000000000000000000000000000000059
:102780000000000000000000000000000000000049
:102A50000000000000FFFF7F0000780000FFFF7F04
:102A60000000780000FFFF7F0000780000FFFF7F7C
:102A700000007800000F007800007800000F007858
:102A800000007800000F007800007800000F007848
:102A900000007800000F007800007800000F007838
:102AA00000007800000F007800007800000F007828
:102AB00000007800000F007800007800000F007818
:102AC00000007800000F007800007800000F007808
:102AD00000007800000F007800007800000F0078F8
:102AE00000007800000F007800007800000F0078E8
:102AF00000007800000F007800007800000F0078D8
:102B000000007800000F007800007800000F0078C7
:102B100000007800000F007800007800000F0078B7
:102B200000007800000F007800007800000F0078A7
:102B30000000780000FFFFFFFFFF7F0000FFFFFFA6
:102B4000FFFF7F0000FFFFFFFFFF7F0000FFFFFF91
:102B5000FFFF7F00000000000000000000000000F8
:102B60000000000000000000000000000000000065
:102B70000000000000000000000000000000000055
:102B80000000000000000000000000000000000045
:102B90000000000000000000000000000000000035
:102BA0000000000000000000000000000000000025
:102BB0000000000000000000000000000000000015
:102BC0000000000000000000000000000000000005
:102BD00000000000000000000000000000000000F5
:102BE00000000000000000000000000000000000E5
:102BF00000000000000000000000000000000000D5
:102C000000000000000000000000000000000000C4
:102C100000000000000000000000000000000000B4
:102C200000000000000000000000000000000000A4
:102C30000000000000000000000000000000000094
:102C40000000000000000000000000000000000084
:102C50000000000000000000000000000000000074
:102C60000000000000000000000000000000000064
:102C70000000000000000000000000000000000054
:102C80000000000000000000000000000000000044
:102C90000000000000000000000000000000000034
:102CA0000000000000000000000000000000000024
:102CB0000000000000000000000000000000000014
:102CC0000000000000000000000000000000000004
:102CD00000000000000000000000000000000000F4
:102CE0000000000011241FBECFEFD1E2DEBFCDBF38
:102CF00000E00CBF13E0A0E0B2E0EAE7F4E800E097
:102D00000BBF02C007900D92AA3CB107D9F714E09F
:102D1000AAECB3E001C01D92A838B107E1F70E9408
:102D20000F3B0C943B420C940000DF93CF93CDB744
:102D3000DEB72E970FB6F894DEBF0FBECDBFEAE226
:102D4000F0E08FEF8083E4E0F1E08FEF8083EAE052
:102D5000F1E08FEF80830E942A1C8FE30E947D1890
:102D60000E943F1C8FE30E947D1880E090E0A0E26B
:102D7000B1E48B879C87AD87BE876B857C858D850D
:102D80009E8526E636E646E655E40E94F83CDC01E0
:102D9000CB018F839887A987BA876F8178858985CA
:102DA0009A8520E030E040E85FE30E94FE3E882301
:102DB0002CF481E090E09E838D833FC06F81788505
:102DC00089859A8520E03FEF4FE757E40E949E3EB9
:102DD00018164CF56B857C858D859E8520E030E04E
:102DE00040E251E40E94F83CDC01CB01BC01CD0182
:102DF0000E94223BDC01CB019E838D830FC080E7C4
:102E000091E09C838B838B819C810197F1F79C835C
:102E10008B838D819E8101979E838D838D819E8181
:102E2000009769F714C06F81788589859A850E941B
:102E3000223BDC01CB019E838D838D819E819A8311
:102E4000898389819A810197F1F79A8389830E9406
:102E50002A1C80EC0E947D180E943F1C80EC0E947E
:102E60007D180E943C172E960FB6F894DEBF0FBE59
:102E7000CDBFCF91DF910895DF93CF9300D0CDB731
:102E8000DEB78091FB0389831092FB031B8217C07E
:102E90008B810E94ED171A820CC08A81803419F44C
:102EA00081E00E94C71780E00E9471198A818F5FBC
:102EB0008A838A8188238CF78B818F5F8B838B81B8
:102EC000883030F389818093FB0380E00E94ED1706
:102ED0000F900F900F90CF91DF910895DF93CF93D4
:102EE00000D0CDB7DEB789836A834B83898188237D
:102EF00019F08981813009F58A818830F0F48B815D
:102F00008034D8F48981882319F40E942A1C02C0D5
:102F10000E943F1C89818093F8038A81886B80938B
:102F2000F9038B8180648093FA038091FA030E94F5
:102F30007D188091F9030E947D180F900F900F90DB
:102F4000CF91DF910895DF93CF9300D000D0CDB71C
:102F5000DEB79A8389837C836B835E834D83809104
:102F6000F803E981FA8180838091F903EB81FC8188
:102F700080838091FA03ED81FE81808326960FB6CF
:102F8000F894DEBF0FBECDBFCF91DF910895DF93E0
:102F9000CF930F92CDB7DEB789838981882319F04B
:102FA00089818130B1F48981882319F40E942A1C17
:102FB00002C00E943F1C89818093F80380E48093C3
:102FC000FA038091F9030E947D188091FA030E9410
:102FD0007D180F90CF91DF910895DF93CF930F92DB
:102FE000CDB7DEB789838981883038F489818854E8
:102FF0008093F90380E00E94C7170F90CF91DF9173
:103000000895DF93CF93CDB7DEB78091F9038F5F3B
:103010008093F9038091F903803C18F088EB80934A
:10302000F90380E00E94C717CF91DF910895DF93E5
:10303000CF93CDB7DEB78FEF8093FB03CF91DF91B6
:103040000895DF93CF93CDB7DEB71092FB03CF91F6
:10305000DF910895DF93CF9300D00F92CDB7DEB705
:103060008C838091F803813021F48091FA038C37AE
:1030700018F48C818A3011F40E9401188C818A30F6
:10308000B9F08091F803882339F48091FA038038ED
:1030900019F481E00E94C7178B818F3F49F08B8123
:1030A0000E9471198091FA038F5F8093FA03E9CF30
:1030B0000F900F900F900F90CF91DF910895DF93B5
:1030C000CF930F920F92CDB7DEB79A8389830BC04F
:1030D000E981FA81208189819A8101969A83898385
:1030E000822F0E942A18E981FA818081882381F742
:1030F0000F900F90CF91DF910895DF93CF93CDB7CD
:10310000DEB769970FB6F894DEBF0FBECDBF898FCB
:103110000E94651AE5E0F1E0898D8083ABE2B0E0C2
:10312000EBE2F0E080818F7D8C93ABE2B0E0EBE2EC
:10313000F0E080818F7B8C93ABE2B0E0EBE2F0E0DB
:10314000808180688C9380E090E0A0E0B0E48D8B7B
:103150009E8BAF8BB88F6D897E898F89988D22E584
:1031600039E44DE950E40E94F83CDC01CB01898B45
:103170009A8BAB8BBC8B69897A898B899C8920E07F
:1031800030E040E85FE30E94FE3E88231CF481E0CB
:10319000888B91C069897A898B899C8920E030E08D
:1031A0004FE753E40E949E3E18160CF07BC06D89D9
:1031B0007E898F89988D20E030E04AE754E40E94B0
:1031C000F23DDC01CB018C879D87AE87BF876C8584
:1031D0007D858E859F8526E636E646E655E40E9487
:1031E000F83CDC01CB0188879987AA87BB87688573
:1031F00079858A859B8520E030E040E85FE30E9486
:10320000FE3E88232CF481E090E09F838E833FC0B4
:10321000688579858A859B8520E03FEF4FE757E4F5
:103220000E949E3E18164CF56C857D858E859F8587
:1032300020E030E040E251E40E94F83CDC01CB01A8
:10324000BC01CD010E94223BDC01CB019F838E8318
:103250000FC080E791E09D838C838C819D810197D5
:10326000F1F79D838C838E819F8101979F838E834D
:103270008E819F81009769F724C0688579858A854A
:103280009B850E94223BDC01CB019F838E838E8134
:103290009F819B838A838A819B810197F1F79B831E
:1032A0008A830FC069897A898B899C890E94223B15
:1032B000DC01CB01888B8889898389818A95F1F724
:1032C0008983ABE2B0E0EBE2F0E080818F778C9312
:1032D00069960FB6F894DEBF0FBECDBFCF91DF91D8
:1032E0000895DF93CF93CDB7DEB769970FB6F89403
:1032F000DEBF0FBECDBF898F0E94651AE5E0F1E009
:10330000898D8083ABE2B0E0EBE2F0E08081806207
:103310008C93ABE2B0E0EBE2F0E080818F7B8C93AA
:10332000ABE2B0E0EBE2F0E0808180688C9380E07B
:1033300090E0A0E0B0E48D8B9E8BAF8BB88F6D8951
:103340007E898F89988D22E539E44DE950E40E9409
:10335000F83CDC01CB01898B9A8BAB8BBC8B6989E8
:103360007A898B899C8920E030E040E85FE30E9405
:10337000FE3E88231CF481E0888B91C069897A899C
:103380008B899C8920E030E04FE753E40E949E3E09
:1033900018160CF07BC06D897E898F89988D20E08E
:1033A00030E04AE754E40E94F23DDC01CB018C8717
:1033B0009D87AE87BF876C857D858E859F8526E638
:1033C00036E646E655E40E94F83CDC01CB018887EE
:1033D0009987AA87BB87688579858A859B8520E040
:1033E00030E040E85FE30E94FE3E88232CF481E059
:1033F00090E09F838E833FC0688579858A859B8511
:1034000020E03FEF4FE757E40E949E3E18164CF530
:103410006C857D858E859F8520E030E040E251E41B
:103420000E94F83CDC01CB01BC01CD010E94223B93
:10343000DC01CB019F838E830FC080E791E09D83E9
:103440008C838C819D810197F1F79D838C838E8184
:103450009F8101979F838E838E819F81009769F75B
:1034600024C0688579858A859B850E94223BDC0182
:10347000CB019F838E838E819F819B838A838A81E8
:103480009B810197F1F79B838A830FC069897A89B1
:103490008B899C890E94223BDC01CB01888B888927
:1034A000898389818A95F1F78983ABE2B0E0EBE209
:1034B000F0E080818F778C9369960FB6F894DEBF29
:1034C0000FBECDBFCF91DF910895DF93CF93CDB7DE
:1034D000DEB7E1970FB6F894DEBF0FBECDBFA4E014
:1034E000B1E0E4E0F1E080818F778C93ABE2B0E073
:1034F000EBE2F0E080818F7D8C93ABE2B0E0EBE219
:10350000F0E0808180648C93ABE2B0E0EBE2F0E02D
:1035100080818F778C9380E090E0A0E0B0E48DA76D
:103520009EA7AFA7B8AB6DA57EA58FA598A922E5EC
:1035300039E44DE950E40E94F83CDC01CB0189A755
:103540009AA7ABA7BCA769A57AA58BA59CA520E0E7
:1035500030E040E85FE30E94FE3E88231CF481E0F7
:1035600088A791C069A57AA58BA59CA520E030E02D
:103570004FE753E40E949E3E18160CF07BC06DA5E9
:103580007EA58FA598A920E030E04AE754E40E9488
:10359000F23DDC01CB018CA39DA3AEA3BFA36CA124
:1035A0007DA18EA19FA126E636E646E655E40E945F
:1035B000F83CDC01CB0188A399A3AAA3BBA368A113
:1035C00079A18AA19BA120E030E040E85FE30E945E
:1035D000FE3E88232CF481E090E09F8F8E8F3FC0C9
:1035E00068A179A18AA19BA120E03FEF4FE757E4B2
:1035F0000E949E3E18164CF56CA17DA18EA19FA144
:1036000020E030E040E251E40E94F83CDC01CB01D4
:10361000BC01CD010E94223BDC01CB019F8F8E8F2C
:103620000FC080E791E09D8F8C8F8C8D9D8D0197D1
:10363000F1F79D8F8C8F8E8D9F8D01979F8F8E8F31
:103640008E8D9F8D009769F724C068A179A18AA10A
:103650009BA10E94223BDC01CB019F8F8E8F8E8D20
:103660009F8D9B8F8A8F8A8D9B8D0197F1F79B8F02
:103670008A8F0FC069A57AA58BA59CA50E94223BC5
:10368000DC01CB0188A788A5898F898D8A95F1F700
:10369000898FABE2B0E0EBE2F0E0808180688C9350
:1036A00080E090E0A0E0B0E48D8B9E8BAF8BB88F74
:1036B0006D897E898F89988D22E539E44DE950E442
:1036C0000E94F83CDC01CB01898B9A8BAB8BBC8BC5
:1036D00069897A898B899C8920E030E040E85FE342
:1036E0000E94FE3E88231CF481E0888B91C069898A
:1036F0007A898B899C8920E030E04FE753E40E946F
:103700009E3E18160CF07BC06D897E898F89988D3E
:1037100020E030E04AE754E40E94F23DDC01CB01B6
:103720008C879D87AE87BF876C857D858E859F85BD
:1037300026E636E646E655E40E94F83CDC01CB017D
:1037400088879987AA87BB87688579858A859B85BD
:1037500020E030E040E85FE30E94FE3E88232CF446
:1037600081E090E09F838E833FC0688579858A855C
:103770009B8520E03FEF4FE757E40E949E3E1816DE
:103780004CF56C857D858E859F8520E030E040E29C
:1037900051E40E94F83CDC01CB01BC01CD010E9448
:1037A000223BDC01CB019F838E830FC080E791E039
:1037B0009D838C838C819D810197F1F79D838C8300
:1037C0008E819F8101979F838E838E819F81009739
:1037D00069F724C0688579858A859B850E94223B8C
:1037E000DC01CB019F838E838E819F819B838A83A3
:1037F0008A819B810197F1F79B838A830FC0698936
:103800007A898B899C890E94223BDC01CB01888BC1
:103810008889898389818A95F1F78983E3E0F1E0DA
:10382000808119AA882314F481E089AB89A98823AF
:1038300009F06ACEA4E0B1E0E4E0F1E080818068C4
:103840008C93E1960FB6F894DEBF0FBECDBFCF913B
:10385000DF910895DF93CF93CDB7DEB7ABE0B1E052
:10386000EBE0F1E0808181608C93ABE0B1E0EBE0D4
:10387000F1E080818D7F8C93CF91DF910895DF936C
:10388000CF93CDB7DEB7ABE0B1E0EBE0F1E0808104
:1038900082608C93ABE0B1E0EBE0F1E080818E7F61
:1038A0008C93CF91DF9108950F931F93DF93CF9364
:1038B000CDB7DEB7C057D0400FB6F894DEBF0FBE0D
:1038C000CDBFFE01E359FF4F80E090E0A0E8BFE3E9
:1038D00080839183A283B3838E0107591F4FFE011A
:1038E000E359FF4F608171818281938126E636E63C
:1038F00046E655E40E94F83CDC01CB01F8018083E8
:103900009183A283B383FE01E759FF4F60817181E8
:103910008281938120E030E040E85FE30E94FE3E38
:10392000882344F4FE01E959FF4F81E090E0918340
:10393000808364C0FE01E759FF4F608171818281FD
:10394000938120E03FEF4FE757E40E949E3E181618
:103950000CF043C0FE01E359FF4F60817181828109
:10396000938120E030E040E251E40E94F83CDC0129
:10397000CB018E0109591F4FBC01CD010E94223B92
:10398000DC01CB01F801918380831FC0FE01EB595C
:10399000FF4F80E791E091838083FE01EB59FF4F59
:1039A000808191810197F1F7FE01EB59FF4F9183DF
:1039B0008083DE01A959BF4FFE01E959FF4F808185
:1039C0009181019711969C938E93FE01E959FF4FC7
:1039D000808191810097D1F627C08E0109591F4F30
:1039E000FE01E759FF4F60817181828193810E94BE
:1039F000223BDC01CB01F80191838083DE01AD59CC
:103A0000BF4FFE01E959FF4F808191818D939C93B7
:103A1000FE01ED59FF4F808191810197F1F7FE0181
:103A2000ED59FF4F91838083A8E2B0E0E8E2F0E037
:103A300080818E7F8C93A8E2B0E0E8E2F0E08081A4
:103A40008D7F8C93E8E2F0E080E38083A8E2B0E031
:103A5000E8E2F0E0808184608C93FE01E15AFF4F40
:103A600080E090E0A0EAB0E480839183A283B383F6
:103A70008E01055A1F4FFE01E15AFF4F608171818F
:103A80008281938126E636E646E655E40E94F83CBC
:103A9000DC01CB01F80180839183A283B383FE0113
:103AA000E55AFF4F608171818281938120E030E08F
:103AB00040E85FE30E94FE3E882344F4FE01E75A9B
:103AC000FF4F81E090E09183808364C0FE01E55A5E
:103AD000FF4F608171818281938120E03FEF4FE74A
:103AE00057E40E949E3E18160CF043C0FE01E15AB6
:103AF000FF4F608171818281938120E030E040E25C
:103B000051E40E94F83CDC01CB018E01075A1F4FA3
:103B1000BC01CD010E94223BDC01CB01F801918365
:103B200080831FC0FE01E95AFF4F80E791E0918337
:103B30008083FE01E95AFF4F808191810197F1F75F
:103B4000FE01E95AFF4F91838083DE01A75ABF4FE0
:103B5000FE01E75AFF4F80819181019711969C9356
:103B60008E93FE01E75AFF4F808191810097D1F635
:103B700027C08E01075A1F4FFE01E55AFF4F608193
:103B80007181828193810E94223BDC01CB01F8018B
:103B900091838083DE01AB5ABF4FFE01E75AFF4F8E
:103BA000808191818D939C93FE01EB5AFF4F808120
:103BB00091810197F1F7FE01EB5AFF4F91838083CA
:103BC000A8E2B0E0E8E2F0E080818B7F8C93FE0118
:103BD000EF5AFF4F80E090E0A0E8BFE3808391833D
:103BE000A283B3838E01035B1F4FFE01EF5AFF4F89
:103BF000608171818281938126E636E646E655E44E
:103C00000E94F83CDC01CB01F80180839183A28300
:103C1000B383FE01E35BFF4F6081718182819381F9
:103C200020E030E040E85FE30E94FE3E882344F459
:103C3000FE01E55BFF4F81E090E09183808364C0EB
:103C4000FE01E35BFF4F608171818281938120E0FF
:103C50003FEF4FE757E40E949E3E18160CF043C01A
:103C6000FE01EF5AFF4F608171818281938120E0D4
:103C700030E040E251E40E94F83CDC01CB018E01CF
:103C8000055B1F4FBC01CD010E94223BDC01CB0133
:103C9000F801918380831FC0FE01E75BFF4F80E73F
:103CA00091E091838083FE01E75BFF4F80819181EA
:103CB0000197F1F7FE01E75BFF4F91838083DE01FF
:103CC000A55BBF4FFE01E55BFF4F808191810197AE
:103CD00011969C938E93FE01E55BFF4F808191814D
:103CE0000097D1F627C08E01055B1F4FFE01E35BF5
:103CF000FF4F60817181828193810E94223BDC01B0
:103D0000CB01F80191838083DE01A95BBF4FFE01E7
:103D1000E55BFF4F808191818D939C93FE01E95B70
:103D2000FF4F808191810197F1F7FE01E95BFF4F21
:103D300091838083A8E2B0E0E8E2F0E080818E7FAA
:103D40008C93A8E2B0E0E8E2F0E080818D7F8C9374
:103D5000E8E2F0E080E38083A8E2B0E0E8E2F0E0AF
:103D6000808184608C93FE01ED5BFF4F80E090E0EA
:103D7000A0EAB0E480839183A283B3838E01015CC7
:103D80001F4FFE01ED5BFF4F608171818281938146
:103D900026E636E646E655E40E94F83CDC01CB0117
:103DA000F80180839183A283B383FE01FF96608133
:103DB00071818281938120E030E040E85FE30E94DE
:103DC000FE3E88232CF481E090E09EAF8DAF46C08C
:103DD000FE01FF96608171818281938120E03FEF37
:103DE0004FE757E40E949E3E181664F5FE01ED5B16
:103DF000FF4F608171818281938120E030E040E259
:103E000051E40E94F83CDC01CB01BC01CD010E94D1
:103E1000223BDC01CB019EAF8DAF0FC080E791E06C
:103E20009CAF8BAF8BAD9CAD0197F1F79CAF8BAF87
:103E30008DAD9EAD01979EAF8DAF8DAD9EAD0097C0
:103E400069F716C0FE01FF966081718182819381BE
:103E50000E94223BDC01CB019EAF8DAF8DAD9EADAC
:103E60009AAF89AF89AD9AAD0197F1F79AAF89AF53
:103E7000A8E2B0E0E8E2F0E080818B7F8C9380E004
:103E800090E0A0E8BFE38DAB9EABAFABB8AF6DA940
:103E90007EA98FA998AD26E636E646E655E40E944F
:103EA000F83CDC01CB0189AB9AABABABBCAB69A9ED
:103EB0007AA98BA99CA920E030E040E85FE30E944A
:103EC000FE3E88232CF481E090E098AB8FA73FC0A2
:103ED00069A97AA98BA99CA920E03FEF4FE757E495
:103EE0000E949E3E18164CF56DA97EA98FA998AD2B
:103EF00020E030E040E251E40E94F83CDC01CB01DC
:103F0000BC01CD010E94223BDC01CB0198AB8FA705
:103F10000FC080E791E09EA78DA78DA59EA5019774
:103F2000F1F79EA78DA78FA598A9019798AB8FA7AA
:103F30008FA598A9009769F714C069A97AA98BA9D8
:103F40009CA90E94223BDC01CB0198AB8FA78FA5D7
:103F500098A99CA78BA78BA59CA50197F1F79CA777
:103F60008BA7A8E2B0E0E8E2F0E080818E7F8C933E
:103F7000A8E2B0E0E8E2F0E080818D7F8C93E8E297
:103F8000F0E080E38083A8E2B0E0E8E2F0E0808146
:103F900084608C9380E090E0A0EAB0E48FA398A7BF
:103FA000A9A7BAA76FA178A589A59AA526E636E69E
:103FB00046E655E40E94F83CDC01CB018BA39CA3B0
:103FC000ADA3BEA36BA17CA18DA19EA120E030E09A
:103FD00040E85FE30E94FE3E88232CF481E090E0FD
:103FE0009AA389A33FC06BA17CA18DA19EA120E0D3
:103FF0003FEF4FE757E40E949E3E18164CF56FA125
:1040000078A589A59AA520E030E040E251E40E941D
:10401000F83CDC01CB01BC01CD010E94223BDC015C
:10402000CB019AA389A30FC080E791E098A38F8F5B
:104030008F8D98A10197F1F798A38F8F89A19AA1ED
:1040400001979AA389A389A19AA1009769F714C03F
:104050006BA17CA18DA19EA10E94223BDC01CB0122
:104060009AA389A389A19AA19E8F8D8F8D8D9E8DF4
:104070000197F1F79E8F8D8FA8E2B0E0E8E2F0E0C3
:1040800080818B7F8C9380E090E0A0E8BFE3898FF4
:104090009A8FAB8FBC8F698D7A8D8B8D9C8D26E628
:1040A00036E646E655E40E94F83CDC01CB018D8BF8
:1040B0009E8BAF8BB88F6D897E898F89988D20E01C
:1040C00030E040E85FE30E94FE3E88232CF481E06C
:1040D00090E09C8B8B8B3FC06D897E898F89988DFA
:1040E00020E03FEF4FE757E40E949E3E18164CF544
:1040F000698D7A8D8B8D9C8D20E030E040E251E41B
:104100000E94F83CDC01CB01BC01CD010E94223BA6
:10411000DC01CB019C8B8B8B0FC080E791E09A8BED
:10412000898B89899A890197F1F79A8B898B8B8979
:104130009C8901979C8B8B8B8B899C89009769F755
:1041400014C06D897E898F89988D0E94223BDC0185
:10415000CB019C8B8B8B8B899C89988B8F878F85D0
:1041600098890197F1F7988B8F87A8E2B0E0E8E291
:10417000F0E080818E7F8C93A8E2B0E0E8E2F0E08E
:1041800080818D7F8C93E8E2F0E080E28083A8E27A
:10419000B0E0E8E2F0E0808184608C9380E090E021
:1041A000A0EAB0E48B879C87AD87BE876B857C8552
:1041B0008D859E8526E636E646E655E40E94F83C67
:1041C000DC01CB018F839887A987BA876F817885B7
:1041D00089859A8520E030E040E85FE30E94FE3E5A
:1041E00088232CF481E090E09E838D833FC06F8113
:1041F000788589859A8520E03FEF4FE757E40E9454
:104200009E3E18164CF56B857C858D859E8520E03D
:1042100030E040E251E40E94F83CDC01CB01BC01FB
:10422000CD010E94223BDC01CB019E838D830FC018
:1042300080E791E09C838B838B819C810197F1F7D0
:104240009C838B838D819E8101979E838D838D813D
:104250009E81009769F714C06F81788589859A855A
:104260000E94223BDC01CB019E838D838D819E8148
:104270009A83898389819A810197F1F79A83898347
:10428000A8E2B0E0E8E2F0E080818B7F8C93C05937
:10429000DF4F0FB6F894DEBF0FBECDBFCF91DF91D9
:1042A0001F910F910895DF93CF93CDB7DEB72E976F
:1042B0000FB6F894DEBF0FBECDBF80E090E0A0E85F
:1042C000BFE38B879C87AD87BE876B857C858D859B
:1042D0009E8526E636E646E655E40E94F83CDC017B
:1042E000CB018F839887A987BA876F817885898565
:1042F0009A8520E030E040E85FE30E94FE3E88239C
:104300002CF481E090E09E838D833FC06F8178859F
:1043100089859A8520E03FEF4FE757E40E949E3E53
:1043200018164CF56B857C858D859E8520E030E0E8
:1043300040E251E40E94F83CDC01CB01BC01CD011C
:104340000E94223BDC01CB019E838D830FC080E75E
:1043500091E09C838B838B819C810197F1F79C83F7
:104360008B838D819E8101979E838D838D819E811C
:10437000009769F714C06F81788589859A850E94B6
:10438000223BDC01CB019E838D838D819E819A83AC
:10439000898389819A810197F1F79A83898388E2D9
:1043A0000E94E72181E00E94E72186E00E94E72148
:1043B0008EE00E94E72180E80E94E7212E960FB64A
:1043C000F894DEBF0FBECDBFCF91DF910895DF938C
:1043D000CF93CDB7DEB76E970FB6F894DEBF0FBEA2
:1043E000CDBF8E8F8E8D8D8F8D8D807F8D8FA8E22E
:1043F000B0E0E8E2F0E080818F708C93A8E2B0E05A
:10440000E8E2F0E090818D8D892B8C93A8E2B0E0FA
:10441000E8E2F0E080818E7F8C93A8E2B0E0E8E2F1
:10442000F0E080818D7F8C93A8E2B0E0E8E2F0E0DC
:10443000808184608C9380E090E0A0EAB0E4898F72
:104440009A8FAB8FBC8F698D7A8D8B8D9C8D26E674
:1044500036E646E655E40E94F83CDC01CB018D8B44
:104460009E8BAF8BB88F6D897E898F89988D20E068
:1044700030E040E85FE30E94FE3E88232CF481E0B8
:1044800090E09C8B8B8B3FC06D897E898F89988D46
:1044900020E03FEF4FE757E40E949E3E18164CF590
:1044A000698D7A8D8B8D9C8D20E030E040E251E467
:1044B0000E94F83CDC01CB01BC01CD010E94223BF3
:1044C000DC01CB019C8B8B8B0FC080E791E09A8B3A
:1044D000898B89899A890197F1F79A8B898B8B89C6
:1044E0009C8901979C8B8B8B8B899C89009769F7A2
:1044F00014C06D897E898F89988D0E94223BDC01D2
:10450000CB019C8B8B8B8B899C89988B8F878F851C
:1045100098890197F1F7988B8F87A8E2B0E0E8E2DD
:10452000F0E080818B7F8C938E8D8F708E8F8E8D3F
:104530008295807F8E8FA8E2B0E0E8E2F0E0808193
:104540008F708C93A8E2B0E0E8E2F0E090818E8D6D
:10455000892B8C93A8E2B0E0E8E2F0E080818E7FC6
:104560008C93A8E2B0E0E8E2F0E080818D7F8C934C
:10457000A8E2B0E0E8E2F0E0808184608C9380E023
:1045800090E0A0EAB0E48B879C87AD87BE876B85FF
:104590007C858D859E8526E636E646E655E40E94B6
:1045A000F83CDC01CB018F839887A987BA876F819C
:1045B000788589859A8520E030E040E85FE30E94B5
:1045C000FE3E88232CF481E090E09E838D833FC0E3
:1045D0006F81788589859A8520E03FEF4FE757E422
:1045E0000E949E3E18164CF56B857C858D859E85B8
:1045F00020E030E040E251E40E94F83CDC01CB01D5
:10460000BC01CD010E94223BDC01CB019E838D8346
:104610000FC080E791E09C838B838B819C81019705
:10462000F1F79C838B838D819E8101979E838D837F
:104630008D819E81009769F714C06F817885898587
:104640009A850E94223BDC01CB019E838D838D8164
:104650009E819A83898389819A810197F1F79A8350
:104660008983A8E2B0E0E8E2F0E080818B7F8C9360
:104670006E960FB6F894DEBF0FBECDBFCF91DF911F
:104680000895DF93CF93CDB7DEB76E970FB6F8944A
:10469000DEBF0FBECDBF8E8F8E8D8D8F8D8D807FB7
:1046A0008D8FA8E2B0E0E8E2F0E080818F708C931B
:1046B000A8E2B0E0E8E2F0E090818D8D892B8C9348
:1046C000A8E2B0E0E8E2F0E0808181608C93A8E2AB
:1046D000B0E0E8E2F0E080818D7F8C93A8E2B0E06A
:1046E000E8E2F0E0808184608C9380E090E0A0EAD2
:1046F000B0E4898F9A8FAB8FBC8F698D7A8D8B8D4B
:104700009C8D26E636E646E655E40E94F83CDC0140
:10471000CB018D8B9E8BAF8BB88F6D897E898F89F6
:10472000988D20E030E040E85FE30E94FE3E882361
:104730002CF481E090E09C8B8B8B3FC06D897E894F
:104740008F89988D20E03FEF4FE757E40E949E3E0F
:1047500018164CF5698D7A8D8B8D9C8D20E030E09C
:1047600040E251E40E94F83CDC01CB01BC01CD01E8
:104770000E94223BDC01CB019C8B8B8B0FC080E71E
:1047800091E09A8B898B89899A890197F1F79A8BA5
:10479000898B8B899C8901979C8B8B8B8B899C89BE
:1047A000009769F714C06D897E898F89988D0E9462
:1047B000223BDC01CB019C8B8B8B8B899C89988B5A
:1047C0008F878F8598890197F1F7988B8F87A8E25B
:1047D000B0E0E8E2F0E080818B7F8C938E8D8F706B
:1047E0008E8F8E8D8295807F8E8FA8E2B0E0E8E27A
:1047F000F0E080818F708C93A8E2B0E0E8E2F0E016
:1048000090818E8D892B8C93A8E2B0E0E8E2F0E0F5
:10481000808181608C93A8E2B0E0E8E2F0E08081E2
:104820008D7F8C93A8E2B0E0E8E2F0E080818460C4
:104830008C9380E090E0A0EAB0E48B879C87AD8702
:10484000BE876B857C858D859E8526E636E646E6A9
:1048500055E40E94F83CDC01CB018F839887A9873F
:10486000BA876F81788589859A8520E030E040E8B5
:104870005FE30E94FE3E88232CF481E090E09E835B
:104880008D833FC06F81788589859A8520E03FEFD1
:104890004FE757E40E949E3E18164CF56B857C85C9
:1048A0008D859E8520E030E040E251E40E94F83C96
:1048B000DC01CB01BC01CD010E94223BDC01CB011C
:1048C0009E838D830FC080E791E09C838B838B81D7
:1048D0009C810197F1F79C838B838D819E81019749
:1048E0009E838D838D819E81009769F714C06F81AF
:1048F000788589859A850E94223BDC01CB019E83C5
:104900008D838D819E819A83898389819A81019784
:10491000F1F79A838983A8E2B0E0E8E2F0E08081D1
:104920008B7F8C936E960FB6F894DEBF0FBECDBF13
:10493000CF91DF910895DF93CF93CDB7DEB780E8B5
:104940000E94E721CF91DF910895DF93CF930F92DB
:104950000F92CDB7DEB79A8389830AC0E981FA81C5
:1049600080810E94412389819A8101969A8389835B
:10497000E981FA818081882389F70F900F90CF9188
:10498000DF910895DF93CF9300D00F92CDB7DEB7BC
:1049900089836A838981282F30E03C832B838B8134
:1049A0009C8182309105D9F02B813C8123303105E7
:1049B00034F48B819C818130910561F01EC02B8184
:1049C0003C812330310581F08B819C8184309105BD
:1049D00081F013C08A8181580E94E7210EC08A812C
:1049E00081540E94E72109C08A818D560E94E721E7
:1049F00004C08A818D520E94E7210F900F900F9082
:104A00000F90CF91DF910895DF93CF93CDB7DEB7AD
:104A100027970FB6F894DEBF0FBECDBF8A836B8396
:104A20005D834C833F832E8319828A81882319F00A
:104A30008B81882319F40E949B2404C08A816B8196
:104A40000E94C2248E819F818530910519F0898151
:104A50008130A9F48C819D8120E137E2B9010E9467
:104A6000F041CB01C0969093F5038093F4038091BD
:104A7000F4039091F5030E94412381E089838E81A4
:104A80009F818430910519F08981813011F58C81E5
:104A90009D8128EE33E0B9010E94F041CB01909353
:104AA000F7038093F6038091F6039091F7032AE0D1
:104AB00030E0B9010E94F041C09690937704809352
:104AC000760480917604909177040E94412381E0DE
:104AD00089838E819F818330910519F0898181308E
:104AE00011F58C819D8124E630E0B9010E94F041EE
:104AF000CB019093F7038093F6038091F603909196
:104B0000F7032AE030E0B9010E94F041C09690938B
:104B10001B0480931A0480911A0490911B040E9434
:104B2000412381E089838E819F818230910519F034
:104B30008981813011F58C819D812AE030E0B901B5
:104B40000E94F041CB019093F7038093F60380918C
:104B5000F6039091F7032AE030E0B9010E94F0419A
:104B6000C096909318048093170480911704909135
:104B700018040E94412381E089838E819F818130C6
:104B8000910519F08981813091F48C819D812AE011
:104B900030E0B9010E94F041C09690937504809373
:104BA000740480917404909175040E9441238E8155
:104BB0009F81863091051CF085E40E944123279651
:104BC0000FB6F894DEBF0FBECDBFCF91DF91089531
:104BD000DF93CF93CDB7DEB7A7E2B0E0E7E2F0E036
:104BE0008081876F8C93A8E2B0E0E8E2F0E08081FA
:104BF00080788C93CF91DF910895DF93CF93CDB7D9
:104C0000DEB7E0E3F0E01082E1E3F0E01082E7E0FD
:104C1000F1E01082E8E0F1E01082CF91DF91089599
:104C2000DF93CF93CDB7DEB7A1E2B0E0E1E2F0E0F1
:104C300080818F608C93A2E2B0E0E2E2F0E08081BC
:104C4000807F8C93AAE0B1E0EAE0F1E080818861A6
:104C50008C93ABE0B1E0EBE0F1E0808188618C9374
:104C6000CF91DF910895DF93CF93CDB7DEB70E9448
:104C7000E8250E94FD250E9410260E9487260E949A
:104C800048260E9405290E941A29CF91DF91089594
:104C9000DF93CF93CDB7DEB7A7E2B0E0E7E2F0E075
:104CA000808188608C93A8E2B0E0E8E2F0E0808147
:104CB000877F8C93CF91DF910895DF93CF930F92ED
:104CC000CDB7DEB71982E6E2F0E080818983898181
:104CD00088608983E8E2F0E0898180830F90CF913A
:104CE000DF910895DF93CF930F92CDB7DEB719828E
:104CF000E6E2F0E0808189838981877F8983E8E229
:104D0000F0E0898180830F90CF91DF910895DF9348
:104D1000CF93CDB7DEB7E3E3F0E083E08083E1E05B
:104D2000F1E080E88083CF91DF910895DF93CF9306
:104D3000CDB7DEB7E4E3F0E082E08083CF91DF918E
:104D40000895DF93CF93CDB7DEB7E4E3F0E01082B0
:104D5000CF91DF910895DF93CF93CDB7DEB7E2E037
:104D6000F1E080E88083CF91DF910895DF93CF93C6
:104D7000CDB7DEB7E2E0F1E01082CF91DF91089588
:104D8000DF93CF93CDB7DEB7E1EDF0E01082E0ED39
:104D9000F0E01082E2EDF0E086E08083E4EDF0E008
:104DA0008FE58083E5EDF0E01082E1EDF0E088E949
:104DB0008083CF91DF9108951F920F920FB60F92CB
:104DC00000905B000F9211242F933F934F935F93BA
:104DD0006F937F938F939F93AF93BF93EF93FF93C3
:104DE000DF93CF93CDB7DEB7E6EDF0E0808180931F
:104DF0001904E6EDF0E08091190480838091190494
:104E00008E3221F58091EA039091EB030196909305
:104E1000EB038093EA038091EA039091EB038230E5
:104E20009105A1F41092E5031092E4031092E703B8
:104E30001092E6031092E9031092E8031092ED033A
:104E40001092EC031092F1031092F0038091EA03A8
:104E50009091EB03009721F580911904803300F1C4
:104E6000809119048A33E0F44091F0035091F103EA
:104E700080911904882F90E09C0120533040CA0192
:104E8000880F991FFC01E150FC4F318320838091F2
:104E9000F0039091F10301969093F1038093F00356
:104EA0008091EA039091EB038130910509F085C070
:104EB000809119048C3229F58091EC039091ED03D7
:104EC0002091EE033091EF03880F991FFC01E85801
:104ED000FB4F318320831092E5031092E40310927C
:104EE000E7031092E6031092E9031092E803809121
:104EF000EC039091ED0301969093ED038093EC0306
:104F00005CC080911904803308F457C08091190463
:104F10008A3308F052C08091E4039091E503019632
:104F20009093E5038093E40380911904882F90E027
:104F3000C0979093E9038093E8038091E4039091F4
:104F4000E50381309105C9F48091E6039091E70370
:104F50009C01220F331FC901880F991F880F991FC9
:104F6000280F391F8091E8039091E903820F931F66
:104F70009093EF038093EE0320C08091EE03909115
:104F8000EF039093E7038093E6038091E60390910B
:104F9000E7039C01220F331FC901880F991F880F57
:104FA000991F280F391F8091E8039091E903820F20
:104FB000931F9093EF038093EE038091EA03909107
:104FC000EB038230910509F055C0809119048C32B1
:104FD000E9F48091EC039091ED032091F00330917E
:104FE000F103880F991FFC01E852FC4F31832083A5
:104FF0008091EC039091ED0301969093ED038093E3
:10500000EC031092F1031092F00334C08091190464
:10501000803380F1809119048A3360F54091EC036C
:105020005091ED036091F0037091F10380911904A8
:10503000882F90E0DC01D097CA01880F991F9C014E
:10504000220F331F220F331F820F931F840F951FD0
:10505000860F971F880F991FFC01E45EFB4FB183F9
:10506000A0838091F0039091F10301969093F10356
:105070008093F003CF91DF91FF91EF91BF91AF91BA
:105080009F918F917F916F915F914F913F912F9160
:105090000F9000925B000F900FBE0F901F9018951D
:1050A000DF93CF93CDB7DEB7E1E2F1E01082E5E226
:1050B000F1E08FEF8083E4E2F1E081E08083E9E2D8
:1050C000F1E01082E8E2F1E08FEF8083EBE2F1E0C3
:1050D0001082EAE2F1E08FEF8083EDE2F1E01082EE
:1050E000ECE2F1E08FEF8083E0E2F1E089EA808397
:1050F000E1E2F1E08BE08083CF91DF910895DF93CF
:10510000CF93CDB7DEB7EAE7F0E01082EBE7F0E04F
:105110001082ECE7F0E080E28083E0E5F0E080E8F8
:105120008083EAE7F0E086E88083CF91DF910895FD
:10513000DF93CF930F920F92CDB7DEB78A838A8128
:10514000883020F0EBE7F0E088E080838A81877088
:105150008A83ECE7F0E08A8180628083AAE7B0E08E
:10516000EAE7F0E0808180648C93EAE7F0E08081F8
:10517000882F90E0807190700097B9F3E9E7F0E034
:1051800080818983AAE7B0E0EAE7F0E0808180616E
:105190008C93EBE7F0E0108289810F900F90CF9114
:1051A000DF910895DF93CF9300D0CDB7DEB7898329
:1051B0006A834B838B810E9498288093FC038091A3
:1051C000FC03282F30E089816A81A90123E030E0C7
:1051D0000E9404250F900F900F90CF91DF910895BA
:1051E000DF93CF930F920F92CDB7DEB789836A8397
:1051F000E8E2F1E089818083EAE2F1E08A8180835C
:105200000F900F90CF91DF910895DF93CF93CDB79B
:10521000DEB7ADE2B0E0EDE2F0E080818F7E8C930E
:10522000AEE2B0E0EEE2F0E0808180618C93CF915D
:10523000DF910895DF93CF93CDB7DEB7ADE2B0E055
:10524000EDE2F0E080818F7D8C93AEE2B0E0EEE2A3
:10525000F0E0808180628C93CF91DF910895DF939D
:10526000CF93CDB7DEB7F894AAE6B0E0EAE6F0E077
:10527000808182608C93ADE3B0E0EDE3F0E080816B
:1052800080618C937894CF91DF910895DF93CF93D1
:10529000CDB7DEB7F894AAE6B0E0EAE6F0E08081A8
:1052A00088608C93ADE3B0E0EDE3F0E08081806254
:1052B0008C937894CF91DF910895DF93CF93CDB7FE
:1052C000DEB7F894AAE6B0E0EAE6F0E08081806814
:1052D0008C93ADE3B0E0EDE3F0E0808180688C93E7
:1052E0007894CF91DF9108951F920F920FB60F928D
:1052F00011248F939F93DF93CF93CDB7DEB781E0D7
:1053000090E09093D7038093D603CF91DF919F9144
:105310008F910F900FBE0F901F9018951F920F92B4
:105320000FB60F9211248F939F93AF93BF93DF9388
:10533000CF93CDB7DEB78091D2039091D303A091E4
:10534000D403B091D5030196A11DB11D8093D20362
:105350009093D303A093D403B093D503CF91DF915F
:10536000BF91AF919F918F910F900FBE0F901F90A3
:1053700018951F920F920FB60F9211248F939F933F
:10538000AF93BF93DF93CF93CDB7DEB78091CE03BA
:105390009091CF03A091D003B091D1030196A11DAC
:1053A000B11D8093CE039093CF03A093D003B0930D
:1053B000D103CF91DF91BF91AF919F918F910F90CA
:1053C0000FBE0F901F901895DF93CF930F920F92FF
:1053D000CDB7DEB78A8319828A818F708A83E2E231
:1053E000F0E0808189838981807F898399818A81A6
:1053F000892B8983E2E2F0E0898180830F900F900E
:10540000CF91DF910895DF93CF93CDB7DEB786E0DC
:105410000E94E429CF91DF910895DF93CF93CDB718
:10542000DEB780E00E94E429CF91DF910895DF93F9
:10543000CF93CDB7DEB789E00E94E429CF91DF9109
:105440000895DF93CF93CDB7DEB785E00E94E429BE
:10545000CF91DF910895DF93CF93CDB7DEB78AE088
:105460000E94E429CF91DF910895DF93CF93CDB7C8
:10547000DEB784E00E94E429CF91DF910895DF93A5
:10548000CF93CDB7DEB782E00E94E429CF91DF91C0
:105490000895DF93CF93CDB7DEB781E00E94E42972
:1054A000CF91DF910895DF93CF93CDB7DEB788E03A
:1054B0000E94E429CF91DF910895DF93CF93CDB778
:1054C000DEB72C970FB6F894DEBF0FBECDBF9A871C
:1054D000898780E090E0A0E0B0E08D839E83AF8379
:1054E000B88719821A821B821C8289859A85CC0111
:1054F000A0E0B0E0BC01CD010E94823FDC01CB0105
:10550000BC01CD0128E431EE42E850E40E94F23DB6
:10551000DC01CB018D839E83AF83B8876D817E8153
:105520008F8198850E94223BDC01CB01CC01A0E059
:10553000B0E089839A83AB83BC831092D20310922C
:10554000D3031092D4031092D5031092CE0310927D
:10555000CF031092D0031092D1032091D203309147
:10556000D3034091D4035091D5031C8689819A813D
:10557000AB81BC81281739074A075B0710F081E02F
:105580008C872091CE033091CF034091D00350916E
:10559000D1031B8689819A81AB81BC812817390789
:1055A0004A075B0710F091E09B878C859B85892BD0
:1055B000882399F20E940D2A2C960FB6F894DEBF2C
:1055C0000FBECDBFCF91DF910895DF93CF93CDB7BD
:1055D000DEB72A970FB6F894DEBF0FBECDBF9A870D
:1055E000898780E090E0A0E0B0E08D839E83AF8368
:1055F000B88719821A821B821C8289859A85CC0100
:10560000A0E0B0E0BC01CD010E94823FDC01CB01F3
:10561000BC01CD0125EE30ED4AEA50E40E94F23D96
:10562000DC01CB018D839E83AF83B8876D817E8142
:105630008F8198850E94223BDC01CB0189839A836C
:10564000AB83BC831092D2031092D3031092D40385
:105650001092D5032091D2033091D3034091D4030B
:105660005091D50389819A81AB81BC8182179307C0
:10567000A407B50778F70E940D2A2A960FB6F8946A
:10568000DEBF0FBECDBFCF91DF910895DF93CF93E3
:105690000F920F92CDB7DEB79A8389830E94032AB7
:1056A00089819A810E94E52A0F900F90CF91DF9116
:1056B0000895DF93CF930F920F92CDB7DEB79A8301
:1056C00089830E94172A89819A810E94E52A0F9076
:1056D0000F90CF91DF910895DF93CF930F920F92A8
:1056E000CDB7DEB79A8389830E94212A89819A8166
:1056F0000E945D2A0F900F90CF91DF910895DF9364
:10570000CF930F920F92CDB7DEB79A8389830E9411
:105710002B2A89819A810E945D2A0F900F90CF9148
:10572000DF910895DF93CF930F920F92CDB7DEB73D
:105730009A8389830E94352A89819A81880F991FCB
:105740009A83898389819A810E945D2A0F900F90A4
:10575000CF91DF910895DF93CF930F920F92CDB742
:10576000DEB79A8389830E943F2A89819A81880FB4
:10577000991F9A83898389819A810E945D2A0F905B
:105780000F90CF91DF910895DF93CF930F920F92F7
:10579000CDB7DEB79A8389830E94492A89819A818D
:1057A000880F991F9A83898389819A810E945D2A33
:1057B0000F900F90CF91DF910895DF93CF930F92C9
:1057C0000F92CDB7DEB79A8389830E94532A8981CD
:1057D0009A81880F991F9A83898389819A810E946F
:1057E0005D2A0F900F90CF91DF910895DF93CF93B3
:1057F000CDB7DEB7F8940E9433260E94C0260E94DF
:105800007F280E9450280E942F290E9446290E942A
:105810005D290E9495160E94541C0E945321789481
:10582000CF91DF910895DF93CF93CDB7DEB783E0BB
:105830000E9498288093CB0382E00E94982880934E
:10584000CC0381E00E9498288093CD0381E061E041
:1058500043E00E94D22881E065E042E00E94D22825
:1058600081E069E041E00E94D2288091CC038F3032
:1058700030F00E94032A83E76DE70E94F0288091B0
:10588000CB038F3050F08091CC038F3030F480E523
:105890006AE50E94F0280E94212A8091CD038F3072
:1058A00050F08091CC038F3030F480E56AE50E949F
:1058B000F0280E942B2A8091CC038F3070F48091C5
:1058C000CD038F3050F48091CB038F3030F40E94A1
:1058D000032A83E76DE70E94F028CF91DF910895B6
:1058E000DF93CF9300D00F92CDB7DEB79C838B832D
:1058F00081E090E09A83898327C00E94132C8091D5
:10590000CC038F31A0F08091CB038F3180F0809158
:10591000CD038F3160F00E94132C8091CB038E3128
:1059200020F08091CD038E31B0F71A8219828981DF
:105930009A81009749F483E76DE70E94F0288DE291
:1059400090E00E94462B3AC08B819C81813091056A
:10595000A1F28B819C81009789F584EB90E00E94F5
:105960006C2B82E390E00E94592B0E94132C8091B3
:10597000CC038F31B8F08091CB038F3120F480912C
:10598000CD038F3178F00E94132C8091CB038E31A0
:1059900020F08091CD038E31B0F789819A810197F3
:1059A0009A83898389819A810097F9F683E76DE765
:1059B0000E94F0288DE290E00E94462B0F900F90FD
:1059C0000F900F90CF91DF910895DF93CF93CDB7D4
:1059D000DEB7C454D0400FB6F894DEBF0FBECDBFC3
:1059E0009EAF8DAFFE01FF9671836083FE01EF5B7A
:1059F000FF4F51834083FE01ED5BFF4F31832083D6
:105A0000FE01EF5BFF4F208131818DAD9EADA9017D
:105A1000481B590BCA019CAF8BAFFE01ED5BFF4FDA
:105A200020813181FE01FF9680819181A901481B6F
:105A3000590BCA019AAF89AF89AD9AAD009709F4A5
:105A400022C180E090E0A0E2B2E48DAB9EABAFABB0
:105A5000B8AF6DA97EA98FA998AD26E636E646E6D1
:105A600055E40E94F83CDC01CB0189AB9AABABABAF
:105A7000BCAB69A97AA98BA99CA920E030E040E8D9
:105A80005FE30E94FE3E88232CF481E090E098AB17
:105A90008FA73FC069A97AA98BA99CA920E03FEFF5
:105AA0004FE757E40E949E3E18164CF56DA97EA95B
:105AB0008FA998AD20E030E040E251E40E94F83C2C
:105AC000DC01CB01BC01CD010E94223BDC01CB01FA
:105AD00098AB8FA70FC080E791E09EA78DA78DA5FB
:105AE0009EA50197F1F79EA78DA78FA598A901976D
:105AF00098AB8FA78FA598A9009769F714C069A9DB
:105B00007AA98BA99CA90E94223BDC01CB0198AB0E
:105B10008FA78FA598A99CA78BA78BA59CA501975C
:105B2000F1F79CA78BA783E76DE70E94F02889AD6A
:105B30009AAD181619060CF053C0809100028330FC
:105B400039F484EB90E00E946C2B81E0809300029A
:105B500080910002843059F481E090E00E94702C22
:105B600086E690E00E946C2B81E080930002809199
:105B70000002823039F486E690E00E947F2B81E0BB
:105B8000809300028DAD9EAD8230910529F489ADE0
:105B90009AAD01969AAF89AF0E94132C8091CC03E5
:105BA0008E31B8F08091CB038E3198F08091CD0387
:105BB0008E3178F00E94132C8091CB038E3120F02F
:105BC0008091CD038E31B0F789AD9AAD01979AAF30
:105BD00089AF89AD9AAD0097F9F60E940D2A53C09E
:105BE00080910002813041F484EB90E00E946C2BA4
:105BF00083E08093000224C080910002843061F42D
:105C000081E090E00E94702C86E690E00E947F2B5D
:105C100083E08093000214C080910002823081F4FE
:105C200080E090E00E94702C8BAD9CAD01979CAF02
:105C30008BAF86E690E00E947F2B83E0809300028A
:105C40000E94132C8091CC038932B8F08091CB0351
:105C5000893298F08091CD03893278F00E94132C1C
:105C60008091CB038E3120F08091CD038E31B0F73F
:105C700089AD9AAD01969AAF89AF89AD9AAD00977B
:105C8000F9F60E940D2A8BAD9CAD009709F405C270
:105C900080E090E0A0E2B2E48FA398A7A9A7BAA7FA
:105CA0006FA178A589A59AA526E636E646E655E4CD
:105CB0000E94F83CDC01CB018BA39CA3ADA3BEA347
:105CC0006BA17CA18DA19EA120E030E040E85FE3C4
:105CD0000E94FE3E88232CF481E090E09AA389A3E1
:105CE0003FC06BA17CA18DA19EA120E03FEF4FE7BB
:105CF00057E40E949E3E18164CF56FA178A589A521
:105D00009AA520E030E040E251E40E94F83CDC013A
:105D1000CB01BC01CD010E94223BDC01CB019AA347
:105D200089A30FC080E791E098A38F8F8F8D98A1F2
:105D30000197F1F798A38F8F89A19AA101979AA350
:105D400089A389A19AA1009769F714C06BA17CA1CE
:105D50008DA19EA10E94223BDC01CB019AA389A3C5
:105D600089A19AA19E8F8D8F8D8D9E8D0197F1F7C0
:105D70009E8F8D8F83E76DE70E94F028FE01ED5B1B
:105D8000FF4F20813181FE01FF968081918128178C
:105D9000390721F08DE290E00E94462B8BAD9CAD3F
:105DA00099230CF0BAC080910002813029F486E674
:105DB00090E00E946C2B11C080910002833029F486
:105DC00086E690E00E947F2B08C08091000284301C
:105DD00021F484EB90E00E946C2B82E0809300021F
:105DE0000E94132C8091CC038E31B8F08091CB03AC
:105DF0008E3198F08091CD038E3178F00E94132C73
:105E00008091CB038E3120F08091CD038E31B0F79D
:105E10008BAD9CAD01969CAF8BAF8BAD9CAD0097CD
:105E2000F9F683E76DE70E94F0288BE490E00E948A
:105E3000592B0E940D2A80E090E0A0E8BFE3898FF3
:105E40009A8FAB8FBC8F698D7A8D8B8D9C8D26E65A
:105E500036E646E655E40E94F83CDC01CB018D8B2A
:105E60009E8BAF8BB88F6D897E898F89988D20E04E
:105E700030E040E85FE30E94FE3E88232CF481E09E
:105E800090E09C8B8B8B3FC06D897E898F89988D2C
:105E900020E03FEF4FE757E40E949E3E18164CF576
:105EA000698D7A8D8B8D9C8D20E030E040E251E44D
:105EB0000E94F83CDC01CB01BC01CD010E94223BD9
:105EC000DC01CB019C8B8B8B0FC080E791E09A8B20
:105ED000898B89899A890197F1F79A8B898B8B89AC
:105EE0009C8901979C8B8B8B8B899C89009769F788
:105EF00014C06D897E898F89988D0E94223BDC01B8
:105F0000CB019C8B8B8B8B899C89988B8F878F8502
:105F100098890197F1F7988B8F878BAD9CAD1816F8
:105F200019060CF0BAC080910002813029F486E68F
:105F300090E00E947F2B11C080910002833029F4F1
:105F400086E690E00E946C2B08C0809100028230AF
:105F500021F484EB90E00E946C2B84E0809300029B
:105F60000E94132C8091CC038E31B8F08091CB032A
:105F70008E3198F08091CD038E3178F00E94132CF1
:105F80008091CB038E3120F08091CD038E31B0F71C
:105F90008BAD9CAD01979CAF8BAF8BAD9CAD00974B
:105FA000F9F683E76DE70E94F0288BE490E00E9409
:105FB000592B0E940D2A80E090E0A0E8BFE38B8778
:105FC0009C87AD87BE876B857C858D859E8526E603
:105FD00036E646E655E40E94F83CDC01CB018F83AF
:105FE0009887A987BA876F81788589859A8520E007
:105FF00030E040E85FE30E94FE3E88232CF481E01D
:1060000090E09E838D833FC06F81788589859A85D6
:1060100020E03FEF4FE757E40E949E3E18164CF5F4
:106020006B857C858D859E8520E030E040E251E4E3
:106030000E94F83CDC01CB01BC01CD010E94223B57
:10604000DC01CB019E838D830FC080E791E09C83B0
:106050008B838B819C810197F1F79C838B838D814E
:106060009E8101979E838D838D819E81009769F724
:1060700014C06F81788589859A850E94223BDC0156
:10608000CB019E838D838D819E819A8389838981B3
:106090009A810197F1F79A838983CC5BDF4F0FB622
:1060A000F894DEBF0FBECDBFCF91DF9108950F935F
:1060B0001F93DF93CF93CDB7DEB7C255D0400FB655
:1060C000F894DEBF0FBECDBFFE01E55BFF4F9183AD
:1060D0008083FE01E35BFF4F71836083FE01E15B20
:1060E000FF4F51834083FE01EF5AFF4F31832083DE
:1060F000AE01475B5F4FFE01E15BFF4FDE01A55B39
:10610000BF4F208131818D919C91B901681B790B22
:10611000CB01FA0191838083AE01495B5F4FFE01A1
:10612000EF5AFF4FDE01A35BBF4F208131818D917C
:106130009C911197B901681B790BCB01FA019183EE
:106140008083FE01E75BFF4F80819181009709F416
:1061500032C1FE01ED5BFF4F80E090E0A0E2B2E4CF
:1061600080839183A283B3838E01015C1F4FFE0164
:10617000ED5BFF4F608171818281938126E636E677
:1061800046E655E40E94F83CDC01CB01F80180832F
:106190009183A283B383FE01FF9660817181828126
:1061A000938120E030E040E85FE30E94FE3E8823D8
:1061B0002CF481E090E09EAF8DAF46C0FE01FF96CB
:1061C000608171818281938120E03FEF4FE757E446
:1061D0000E949E3E181664F5FE01ED5BFF4F608144
:1061E00071818281938120E030E040E251E40E949D
:1061F000F83CDC01CB01BC01CD010E94223BDC015B
:10620000CB019EAF8DAF0FC080E791E09CAF8BAF0D
:106210008BAD9CAD0197F1F79CAF8BAF8DAD9EAD73
:1062200001979EAF8DAF8DAD9EAD009769F716C0FB
:10623000FE01FF9660817181828193810E94223BE1
:10624000DC01CB019EAF8DAF8DAD9EAD9AAF89AF16
:1062500089AD9AAD0197F1F79AAF89AF83E76DE702
:106260000E94F028FE01E75BFF4F80819181992316
:106270000CF055C080910002813021F486E690E058
:106280000E946C2B80910002833021F486E690E01E
:106290000E947F2B80910002843029F484EB90E0EF
:1062A0000E946C2B0BC0DE01A75BBF4FFE01E75BBA
:1062B000FF4F8081918101978D939C9382E0809321
:1062C00000020E94132C8091CC038E31F0F080915B
:1062D000CB038E31D0F08091CD038E31B0F00E948F
:1062E000132C8091CB038E3120F08091CD038E3121
:1062F000B0F7DE01A75BBF4FFE01E75BFF4F808178
:106300009181019611969C938E93FE01E75BFF4F5E
:10631000808191810097A9F60E940D2A4CC080913E
:106320000002813029F486E690E00E947F2B11C0A4
:1063300080910002833029F486E690E00E946C2B65
:1063400008C080910002823021F484EB90E00E942A
:106350006C2B84E0809300020E94132C8091CC036C
:106360008E31F0F08091CB038E31D0F08091CD034F
:106370008E31B0F00E94132C8091CB038E3120F02F
:106380008091CD038E31B0F7DE01A75BBF4FFE01D8
:10639000E75BFF4F80819181019711969C938E93CB
:1063A000FE01E75BFF4F80819181FFEF8F3F9F07E9
:1063B00099F60E940D2AFE01E95BFF4F80819181D1
:1063C000009709F416C280E090E0A0E2B2E48DAB41
:1063D0009EABAFABB8AF6DA97EA98FA998AD26E6ED
:1063E00036E646E655E40E94F83CDC01CB0189AB79
:1063F0009AABABABBCAB69A97AA98BA99CA920E0ED
:1064000030E040E85FE30E94FE3E88232CF481E008
:1064100090E098AB8FA73FC069A97AA98BA99CA9E6
:1064200020E03FEF4FE757E40E949E3E18164CF5E0
:106430006DA97EA98FA998AD20E030E040E251E43B
:106440000E94F83CDC01CB01BC01CD010E94223B43
:10645000DC01CB0198AB8FA70FC080E791E09EA72E
:106460008DA78DA59EA50197F1F79EA78DA78FA556
:1064700098A9019798AB8FA78FA598A9009769F75E
:1064800014C069A97AA98BA99CA90E94223BDC01AE
:10649000CB0198AB8FA78FA598A99CA78BA78BA59D
:1064A0009CA50197F1F79CA78BA783E76DE70E9456
:1064B000F0288DE290E00E94462B80E090E0A0EA78
:1064C000B1E48FA398A7A9A7BAA76FA178A589A5BA
:1064D0009AA526E636E646E655E40E94F83CDC013D
:1064E000CB018BA39CA3ADA3BEA36BA17CA18DA16B
:1064F0009EA120E030E040E85FE30E94FE3E88235A
:106500002CF481E090E09AA389A33FC06BA17CA109
:106510008DA19EA120E03FEF4FE757E40E949E3EF1
:1065200018164CF56FA178A589A59AA520E030E052
:1065300040E251E40E94F83CDC01CB01BC01CD01FA
:106540000E94223BDC01CB019AA389A30FC080E704
:1065500091E098A38F8F8F8D98A10197F1F798A361
:106560008F8F89A19AA101979AA389A389A19AA142
:10657000009769F714C06BA17CA18DA19EA10E9418
:10658000223BDC01CB019AA389A389A19AA19E8F0A
:106590008D8F8D8D9E8D0197F1F79E8F8D8FFE01D2
:1065A000E95BFF4F80819181181619060CF0CDC070
:1065B00080910002833041F484EB90E00E946C2BC8
:1065C00081E08093000217C080910002843041F482
:1065D00086E690E00E946C2B81E0809300020BC065
:1065E00080910002823039F486E690E00E947F2B91
:1065F00081E0809300020E94132C8091CC038E31A5
:10660000F0F08091CB038E31D0F08091CD038E31AC
:10661000B0F00E94132C8091CB038E3120F080913A
:10662000CD038E31B0F7DE01A95BBF4FFE01E95B00
:10663000FF4F80819181019711969C938E93FE016B
:10664000E95BFF4F808191812FEF8F3F920799F691
:106650000E940D2A83E76DE70E94F0288BE490E00A
:106660000E94592B80E090E0A8ECB2E4898F9A8FC9
:10667000AB8FBC8F698D7A8D8B8D9C8D26E636E62F
:1066800046E655E40E94F83CDC01CB018D8B9E8BE5
:10669000AF8BB88F6D897E898F89988D20E030E02F
:1066A00040E85FE30E94FE3E88232CF481E090E006
:1066B0009C8B8B8B3FC06D897E898F89988D20E064
:1066C0003FEF4FE757E40E949E3E18164CF5698D48
:1066D0007A8D8B8D9C8D20E030E040E251E40E9469
:1066E000F83CDC01CB01BC01CD010E94223BDC0166
:1066F000CB019C8B8B8B0FC080E791E09A8B898BB1
:1067000089899A890197F1F79A8B898B8B899C8962
:1067100001979C8B8B8B8B899C89009769F7F2C0C2
:106720006D897E898F89988D0E94223BDC01CB0187
:106730009C8B8B8B8B899C89988B8F878F85988975
:106740000197F1F7988B8F87DDC08091000281302F
:1067500029F484EB90E00E946C2B11C08091000220
:10676000843029F486E690E00E947F2B08C0809157
:106770000002823021F486E690E00E947F2B83E0C5
:10678000809300020E94132C8091CC038E31F0F094
:106790008091CB038E31D0F08091CD038E31B0F05B
:1067A0000E94132C8091CB038E3120F08091CD0379
:1067B0008E31B0F7DE01A95BBF4FFE01E95BFF4FF1
:1067C00080819181019611969C938E93FE01E95BE5
:1067D000FF4F8081918181309105A1F60E940D2AA1
:1067E00083E76DE70E94F0288BE490E00E94592B2C
:1067F00089C0FE01E15BFF4FDE01A55BBF4F208139
:1068000031818D919C9111972817390709F47AC02D
:1068100080E090E0A0EAB1E48B879C87AD87BE87DB
:106820006B857C858D859E8526E636E646E655E4B5
:106830000E94F83CDC01CB018F839887A987BA8737
:106840006F81788589859A8520E030E040E85FE3B4
:106850000E94FE3E88232CF481E090E09E838D838D
:106860003FC06F81788589859A8520E03FEF4FE7AB
:1068700057E40E949E3E18164CF56B857C858D85ED
:106880009E8520E030E040E251E40E94F83CDC01CB
:10689000CB01BC01CD010E94223BDC01CB019E83D8
:1068A0008D830FC080E791E09C838B838B819C81DB
:1068B0000197F1F79C838B838D819E8101979E8345
:1068C0008D838D819E81009769F714C06F817885D3
:1068D00089859A850E94223BDC01CB019E838D83B2
:1068E0008D819E819A83898389819A810197F1F7AD
:1068F0009A83898383E76DE70E94F0288BE490E018
:106900000E94592BCE5ADF4F0FB6F894DEBF0FBE50
:10691000CDBFCF91DF911F910F910895DF93CF935A
:1069200000D000D0CDB7DEB79A83898389819A8160
:10693000009729F484EE94E09C838B8365C0898161
:106940009A818130910529F484EE98E09C838B83B1
:106950005BC089819A818230910529F484EE9CE0A4
:106960009C838B8351C089819A818330910529F45E
:1069700084EE90E19C838B8347C089819A81843027
:10698000910529F484EE94E19C838B833DC0898139
:106990009A818530910529F484EE98E19C838B835C
:1069A00033C089819A818630910529F484EE9CE177
:1069B0009C838B8329C089819A818730910529F432
:1069C00084EE90E29C838B831FC089819A818830FA
:1069D000910529F484EE94E29C838B8315C0898110
:1069E0009A818930910529F484EE98E29C838B8307
:1069F0000BC089819A818A30910529F484EE90E058
:106A00009C838B8301C004C08B819C819E838D837A
:106A10008D819E8126960FB6F894DEBF0FBECDBF46
:106A2000CF91DF910895DF93CF93CDB7DEB72E9747
:106A30000FB6F894DEBF0FBECDBF9C878B870E9438
:106A400095168B859C850E948E3498878F838F81C5
:106A500098859E838D831A862FC08A850E94ED17A4
:106A600019861BC08985803419F481E00E94C717FC
:106A70008F8198859B838A83EA81FB8184918983B6
:106A800089818C838C810E9471198F8198850896E9
:106A900098878F8389858F5F89878985882314F7F5
:106AA0008D819E8101969E838D838D819E819887A5
:106AB0008F838A858F5F8A878A85883070F22E96C9
:106AC0000FB6F894DEBF0FBECDBFCF91DF91089512
:106AD000DF93CF930F920F92CDB7DEB79A8389835E
:106AE00089819A810097C9F089819A8181309105C5
:106AF000A1F089819A818430910579F089819A8108
:106B00008530910551F089819A818830910529F06D
:106B100089819A818930910549F40E94962681E005
:106B200090E09093E1038093E00308C00E94AB26BD
:106B300081E090E09093E3038093E2030F900F9045
:106B4000CF91DF910895DF93CF930F920F92CDB73E
:106B5000DEB79A83898389819A8181309105C9F052
:106B600089819A8183309105A1F089819A8184304D
:106B7000910579F089819A818530910551F089815B
:106B80009A818630910529F089819A818730910513
:106B900049F40E94962681E090E09093E10380936F
:106BA000E00308C00E94AB2681E090E09093E303ED
:106BB0008093E2030F900F90CF91DF910895DF93C0
:106BC000CF93CDB7DEB760970FB6F894DEBF0FBE98
:106BD000CDBF81E090E0988B8F870E94132C80912D
:106BE000CC038E31B8F08091CB038E3198F0809138
:106BF000CD038E3178F00E94132C8091CB038E311F
:106C000020F08091CD038E31B0F78F859889019760
:106C1000988B8F878F8598890097F9F683E76DE7C2
:106C20000E94F02884E190E00E94462B80910002AF
:106C3000813021F483E08093000213C08091000230
:106C4000833021F481E0809300020BC08091000228
:106C5000823021F484E08093000203C082E08093BC
:106C6000000280E090E0A0EAB1E48B879C87AD87CA
:106C7000BE876B857C858D859E8526E636E646E655
:106C800055E40E94F83CDC01CB018F839887A987EB
:106C9000BA876F81788589859A8520E030E040E861
:106CA0005FE30E94FE3E88232CF481E090E09E8307
:106CB0008D833FC06F81788589859A8520E03FEF7D
:106CC0004FE757E40E949E3E18164CF56B857C8575
:106CD0008D859E8520E030E040E251E40E94F83C42
:106CE000DC01CB01BC01CD010E94223BDC01CB01C8
:106CF0009E838D830FC080E791E09C838B838B8183
:106D00009C810197F1F79C838B838D819E810197F4
:106D10009E838D838D819E81009769F714C06F815A
:106D2000788589859A850E94223BDC01CB019E8370
:106D30008D838D819E819A83898389819A81019730
:106D4000F1F79A83898383E76DE70E94F0288EEB41
:106D500090E00E946C2B60960FB6F894DEBF0FBED9
:106D6000CDBFCF91DF910895DF93CF93CDB7DEB73D
:106D7000AE970FB6F894DEBF0FBECDBF1EA61DA600
:106D80001CA61BA61AA619A61EA21DA21CA21BA207
:106D90002091D8033091D9038091DA039091DB03DD
:106DA000280F391F8091DC039091DD03280F391FD4
:106DB0008091DE039091DF03820F931F9E8F8D8F52
:106DC0001DC48BA19CA1880F991FFC01E852FC4FA8
:106DD000208131818BA59CA52817390761F48BA1EF
:106DE0009CA101969CA38BA38DA19EA102969EA31C
:106DF0008DA31CA61BA61AA619A645C04BA15CA173
:106E00006BA57CA5CA01880F991F9C01220F331F17
:106E1000220F331F820F931F840F951F860F971F1A
:106E2000880F991FFC01E45EFB4F2081318189A509
:106E30009AA5880F991FFC01E150FC4F8081918138
:106E400028173907D9F449A55AA589A59AA5880F05
:106E5000991FFC01E150FC4F808191819C01225ED1
:106E60003F4FCA01880F991FFC01E150FC4F31834D
:106E7000208389A59AA598A78FA30BC089A59AA559
:106E800001969AA789A789A59AA58C3091050CF43B
:106E9000B5CF8DA59EA5009759F58FA198A5880F10
:106EA000991F880F991FFC01EF5FFD4F8081918131
:106EB0009AA389A38FA198A5880F991F880F991F5E
:106EC000FC01ED5FFD4F8081918198A38F8F29A1F7
:106ED0003AA1EF8DF8A182E090E06FEF7FEFA9017A
:106EE0009F010E94E52C8FA198A50E9468352AC0B9
:106EF0008FA198A5880F991F880F991FFC01EF5645
:106F0000FD4F808191819AA389A38FA198A5880FB5
:106F1000991F880F991FFC01ED56FD4F80819181CB
:106F200098A38F8F29A13AA1EF8DF8A184E090E07A
:106F300061E070E0A9019F010E9457308FA198A5E0
:106F40000E94A3354BA15CA16BA57CA5CA01880F4B
:106F5000991F9C01220F331F220F331F820F931F93
:106F6000840F951F860F971F880F991FFC01E45E01
:106F7000FB4F808191810E94133589A19AA10097CE
:106F800029F089A19AA18130910571F48F8D98A182
:106F90008130910549F48DA59EA5009729F489A11A
:106FA0009AA101969AA389A38FA198A584309105EF
:106FB00074F08FA198A58C3091054CF48DA59EA5F9
:106FC000009729F089A19AA101969AA389A38FA17C
:106FD00098A58630910579F08FA198A58730910505
:106FE00051F08FA198A58A30910529F08FA198A51D
:106FF0008B30910549F48DA59EA5009729F489A1B0
:107000009AA101979AA389A389A19AA12F8D38A14A
:10701000B90145E050E021E030E00E94E52C8DA16F
:107020009EA1880F991FFC01E858FB4F8081918138
:10703000880F991F880F991FFC01EF5CFD4F80811D
:1070400091819AA389A38DA19EA1880F991FFC010C
:10705000E858FB4F80819181880F991F880F991FF5
:10706000FC01ED5CFD4F8081918198A38F8F29A158
:107070003AA1EF8DF8A185E090E061E070E0A90110
:107080009F010E9457308091E0039091E10381308D
:10709000910509F0C1C08F8D98A18130910509F447
:1070A0004FC08DA19EA1880F991FFC01E858FB4F8E
:1070B0008081918181309105E1F18DA19EA1880FA0
:1070C000991FFC01E858FB4F808191818330910525
:1070D00081F18DA19EA1880F991FFC01E858FB4FFB
:1070E000808191818530910521F18DA19EA1880F2C
:1070F000991FFC01E858FB4F8081918182319105F5
:10710000C1F08DA19EA1880F991FFC01E858FB4F8B
:10711000808191818431910561F08DA19EA1880FBC
:10712000991FFC01E858FB4F8081918186319105C0
:1071300039F41092E1031092E0030E94A1266CC082
:107140008F8D98A181309105C9F00E94DF358F8D18
:1071500098A11816190634F48F8D98A1019698A35A
:107160008F8F05C08F8D98A1019798A38F8F109254
:10717000E1031092E0030E94A1264EC08F8D98A1DA
:107180008130910521F58DA19EA1880F991FFC01E9
:10719000E858FB4F808191818C309105C4F08DA11E
:1071A0009EA1880F991FFC01E858FB4F80819181B7
:1071B0008231910564F40E94A1261092E10310929D
:1071C000E00389A19AA101979AA389A325C08F8D75
:1071D00098A18130910501F58DA19EA1880F991F7D
:1071E000FC01E858FB4F8081918186309105A4F025
:1071F0008DA19EA1880F991FFC01E858FB4F80814B
:1072000091818C30910544F40E94DF351092E103A6
:107210001092E0030E94A1268091E2039091E30383
:107220008130910509F0C0C08F8D98A18130910502
:1072300009F44EC08DA19EA1880F991FFC01E8584A
:10724000FB4F808191810097E1F18DA19EA1880F74
:10725000991FFC01E858FB4F808191818230910594
:1072600081F18DA19EA1880F991FFC01E858FB4F69
:10727000808191818430910521F18DA19EA1880F9B
:10728000991FFC01E858FB4F808191818331910562
:10729000C1F08DA19EA1880F991FFC01E858FB4FFA
:1072A000808191818531910561F08DA19EA1880F2A
:1072B000991FFC01E858FB4F80819181873191052E
:1072C00039F41092E3031092E2030E94B6266CC0D8
:1072D0008F8D98A181309105C9F00E94DF358F8D87
:1072E00098A11816190634F48F8D98A1019698A3C9
:1072F0008F8F05C08F8D98A1019798A38F8F1092C3
:10730000E3031092E2030E94B6264EC08F8D98A12F
:107310008130910521F58DA19EA1880F991FFC0157
:10732000E858FB4F8081918186309105C4F08DA192
:107330009EA1880F991FFC01E858FB4F8081918125
:107340008C30910564F40E94B6261092E3031092EB
:10735000E20389A19AA101979AA389A325C08F8DE1
:1073600098A18130910501F58DA19EA1880F991FEB
:10737000FC01E858FB4F808191818C309105A4F08D
:107380008DA19EA1880F991FFC01E858FB4F8081B9
:1073900091818231910544F40E94DF351092E3031C
:1073A0001092E2030E94B6268AE090E00E94133514
:1073B0008BA59CA501969CA78BA78BA19CA1880F50
:1073C000991FFC01E852FC4F208131818BA59CA5BF
:1073D0002817390709F0F8C08D8D9E8D9C0121502A
:1073E00030408DA59EA52817390709F077C00E9467
:1073F0005D2680E090E8ABEBB5E4898F9A8FAB8F88
:10740000BC8F698D7A8D8B8D9C8D26E636E646E69F
:1074100055E40E94F83CDC01CB018D8B9E8BAF8B39
:10742000B88F6D897E898F89988D20E030E040E8A3
:107430005FE30E94FE3E88232CF481E090E09C8B69
:107440008B8B3FC06D897E898F89988D20E03FEFBF
:107450004FE757E40E949E3E18164CF5698D7A8DD1
:107460008B8D9C8D20E030E040E251E40E94F83C9E
:10747000DC01CB01BC01CD010E94223BDC01CB0130
:107480009C8B8B8B0FC080E791E09A8B898B8989CD
:107490009A890197F1F79A8B898B8B899C8901973F
:1074A0009C8B8B8B8B899C89009769F714C06D89A5
:1074B0007E898F89988D0E94223BDC01CB019C8BB9
:1074C0008B8B8B899C89988B8F878F859889019767
:1074D000F1F7988B8F870E94722676C00E945D26F6
